:100000000C9461060C94581A0C942D1A0C94021A34
:100010000C94D7190C94AC190C9481190C945619A2
:100020000C942B190C9492060C9492060C94920644
:100030000C9492060C9492060C9492060C94A71BB6
:100040000C9492060C9492060C9492060C949206D0
:100050000C9492060C9492060C9492060C94E1185F
:100060000C9492060C94AB180C9481180C94920684
:100070000C9492060C9492060C9492060C949206A0
:100080000C9492060C9492060C9492060C94920690
:100090000C9492060C9492060C9492060C94831A7B
:1000A0000C9492060C9492060C9492060C94920670
:1000B0000C9492060C9492060C9492060C94920660
:1000C0000C9492060C9492060C9492060C94920650
:1000D0000C9492060C9492060C9492060C94920640
:1000E0000C949206084AD73B3BCE016E84BCBFFD00
:1000F000C12F3D6C74319ABD56833DDA3D00C77FF8
:1001000011BED9E4BB4C3E916BAAAABE0000008090
:100110003F000C943E080C94650B0C9493090C94CE
:1001200030080C94A7090C942E090C94210D0C9402
:1001300017090C9495060C9448080C9442090C94E9
:1001400070090C9466090C941D1C0C9428080C94DE
:100150001F090C94F4060C94BD0F0C94F20C0C9433
:10016000B1090C94D2060C948E0B0C9496060C9448
:1001700024090C94DA0F0C9411080C94B90F0C9408
:1001800015080C9409080C9494070C943A080C94E4
:1001900022080C945C090C94BB0B0C9489090C94F8
:1001A00003080C9444080C94CA0F0C94870B0C940D
:1001B00038090C942C080C942C070C940D0A0C9400
:1001C00052090C941E080C94D00F0C94DE170C945A
:1001D0000E0C0C94640B0C940D080C9418080C94E1
:1001E0007F090C9436080C949D090C9494060C9489
:1001F000C3060C944A090C94CD0F0C9443080C943C
:10020000740B0C94E60600002100240027002A004D
:100210002D003000330001010000040107010A0134
:1002200000002200250028002B002E0031003400A1
:1002300002010000050108010B010000200023005D
:10024000260029002C002F003200000100000301CD
:100250000601090105050505070508080808020249
:1002600002020A0A08080404040401010101010150
:1002700001010303030303030303040707070C0C33
:100280000C0C0C0C0C0C02020202060606060606FA
:1002900006060B0B0B0B0B0B0B0B0102102020089F
:1002A00008102040102040800201020108040201D1
:1002B0000102040810204080804020100804020140
:1002C0008004020180402010080402010804020199
:1002D0000102040810204080010204081020408020
:1002E00000000A0B02090C0D0E08070304010000B0
:1002F00000000000000000000000000000000000FE
:1003000000000000000000000000000012111000BA
:1003100000000000000000000000000000000000DD
:1003200000000000000001B202FFFF019004092359
:10033000A135016A0206000160080000000000000B
:100340000000006004400000000162020000006044
:100350000400400000037B034CCD6C03AB03365616
:100360007600680402CB47A202180400058BC10185
:100370000C0400000000037F060CC92C979797031C
:100380008903264666006C0220000240040000003B
:1003900000024404000000000248040000000002C3
:1003A0004C0400000000025004000000000254044D
:1003B0000000000002580400000000025C0400007D
:1003C000000002BC040000000001EC04000040003A
:1003D000037F060CC92C9797970402030D355D0423
:1003E0000904872D353D00A30100000000010786A8
:1003F00001FE074105F120283038077E013007460D
:10040000019A074704F1283038076C04F128303886
:100410000216020001FB00003E000B003600010046
:10042000020003000000650054FFEF0000FA8000A6
:100430000B1282000100020000000000000000001A
:10044000000000000000280000FFFF4581FFFFFAC8
:100450007200000000000003E80000000100017FBE
:10046000FFFFFE8001001B000000000000000000F4
:100470000000000000003E03304000000002CAE31C
:10048000093E800000200000000000000040000045
:10049000006000000041FF000000000B2A00001671
:1004A0005500002182FD872650FD800000001F00BE
:1004B00000000580000000000000010000000200B4
:1004C0000000030000400000000000046F0002650F
:1004D0003200005EC040000000000000000000008C
:1004E0000000000000FB8C6F5DFD5D08D9007C738F
:1004F0003B006C12CC3200139D3200D0D632000883
:1005000000400001F4FFE68079020000000000D006
:10051000D600002710FB0000004000000000000093
:1005200000000000000000000100000000000001C9
:1005300000010000000000FA36FFBC308E0005FB11
:10054000F0FFD95BC8FFD09ABE000010A9FFF41ECF
:10055000B200CEBBF7000000010000000400020062
:10056000020200000CFFC280000001800000CF806A
:100570000040000000000000010000000000000634
:100580000000000014000000000000000000000057
:10059000000000000000000000000000000000005B
:1005A000000000000000000000000000000000004B
:1005B000000000000000000000033F68B679352805
:1005C000BCC67ED16C80000000400000000000B27C
:1005D0006A00000000000000000000000000003F72
:1005E000F0000000300000000000000000000000EB
:1005F00000000000000000000000000000000000FB
:1006000000000000000000254D002F706D00000567
:10061000AE000C02D00000000000650054FFEF00A7
:100620000000000000000001000044000000000C79
:100630000000000100000000000065000000540000
:1006400000FFEF00000000000000000000000000BC
:10065000000000000040000000000000000000005A
:10066000000000000040000000000000000000004A
:100670000000000000000000010000000200000077
:10068000000000000000000000000000000000006A
:10069000000000000000000000000000000000005A
:1006A0000000000000001B0000000000000000002F
:1006B000000000000000000000000000000000003A
:1006C000000000000000000000000000000000002A
:1006D0000040000000001B000000000000000000BF
:1006E000000000000000000000000000000000000A
:1006F00000000000000000000000000000000000FA
:1007000000000000000000000000000000000000E9
:100710000000000000D8DCBAA2F1DEB2B8B4A881B3
:1007200091F74A907F916AF3F9DBA8F9B0BAA080FB
:10073000F2CE81F3C2F1C1F2C3F3CCA2B280F1C612
:10074000D880BAA7DFDFDFF2A7C3CBC5B6F087A298
:10075000942448703C95406834589B78A2F1839269
:100760002D557DD8B1B4B8A1D09180F270F370F25C
:100770007C80A8F101B09887D943D886C988BAA1EE
:10078000F20EB89780F1A9DFDFDFAADFDFDFF2AA80
:10079000C5CDC7A90CC92C97979797F1A98926466B
:1007A00066B0B4BA80ACDEF2CAF1B28C02A9B698D7
:1007B00000890E161EB8A9B4992C547CB08AA8964C
:1007C000365676F1B9AFB4B083C0B8A89711B18FDF
:1007D00098B9AFF0240844106418F1A329557DAFEF
:1007E00083B593AFF0002850F1A3869F61A6DADEAF
:1007F000DFD9FAA38696DB31A6D9F8DFBAA68FC275
:10080000C5C7B28CC1B8A2DFDFDFA3DFDFDFD8D876
:10081000F1B8A8B286B4980D355DB8AA98B0872D06
:10082000353DB2B6BAAF8C96198F9FA70E161EB47F
:100830009AB8AA872C547CB9A3DEDFDFA3B180F27B
:10084000C4CDC9F1B8A9B499830D355D89B9A32D7B
:10085000557DB593A30E161EA92C547CB8B4B0F1E7
:100860009783A81184A50998A383F0DA240844107B
:100870006418D8F1A529557DA58595021A2E3A56FA
:100880005A4048F9F3A3D9F8F09883240844106437
:10089000189782A8F111F098A2240844106418DA7D
:1008A000F3DED883A59401D9A302F1A2C3C5C7D8AA
:1008B000F18492A24DDA2AD84869D92AD86855DA43
:1008C00032D85071D932D8705DDA3AD85879D93ADD
:1008D000D87893A34DDA2AD84869D92AD86855DA46
:1008E00032D85071D932D8705DDA3AD85879D93ABD
:1008F000D878A88A9AF02850789EF38818F19F1D1E
:1009000098A8D908D8C89F129EF315A8DA1210D853
:10091000F1AFC8978734B5B994A421F3D922D8F29E
:100920002DF3D92AD8F235F3D932D881A460606189
:10093000D961D86C6869D969D8747071D971D8B126
:10094000A384193D5DA3831A3E5E9310308110117C
:10095000B8B0AF8F94F2DA3ED8B49AA88729DAF803
:10096000D8879A35DAF8D8879A3DDAF8D8B1B9A499
:100970009885022E56A581000C14A397B08AF12DFC
:10098000D928D84DD948D86DD968D8B1840DDA0E98
:10099000D8A32983DA2C0ED8A3844983DA2C4C0EF1
:1009A000D8B8B0A88A9AF520AADADFD8A840AAD089
:1009B000DADED8A860AADAD0DFD8F19786A8319B12
:1009C000069907AB9728889BF00C201440B8B0B468
:1009D000A88C9CF0042851791D301438B282ABD019
:1009E000982C505078789BF11AB0F08A9CA8295125
:1009F000798B2951798A2470598B2058718A4469DE
:100A0000388B3940688A6448318B304960A588202A
:100A10000971584468113964493019F1AC002C54FB
:100A20007CF08CA804285078F1889726A85998ACB7
:100A30008C02264666F0899CA82951792470594475
:100A40006938644831A98809205970AB1138406968
:100A5000A8193148608CA83C415C207C00F1879843
:100A60001986A86E767EA999882D557D9EB9A38A90
:100A7000228A6E8A568A5E9FB183062646660E2EAD
:100A80004E6E9DB8AD002C547CF2B18CB499B9A3D4
:100A90002D557D8191AC38AD3AB58391AC2DD928D7
:100AA000D84DD948D86DD968D88C9DAE29D904AE17
:100AB000D851D904AED879D904D881F39DAD008D31
:100AC000AE1981ADD901D8F2AEDA26D88E9129833C
:100AD000A7D9ADADADADF32AD8D8F1B0AC89913E70
:100AE0005E76F3AC2E2EF1B18C5A9CAC2C282828C3
:100AF0009CAC3018A8988128343C9724A728343C13
:100B00009C24F2B089AC912C4C6C8A9B2DD9D8D8FE
:100B100051D9D8D879D9D8D8F19E88A331DAD8D884
:100B2000912DD928D84DD948D86DD968D8B183939B
:100B3000353D8025DAD8D88569DAD8D8B49381A331
:100B400028343CF3AB8BF8A391B609B4D9ABDEFAE9
:100B5000B0879CB9A3DDF1A3A3A3A395F1A3A3A39D
:100B60009DF1A3A3A3A3F2A3B49080F2A3A3A3A394
:100B7000A3A3A3A3A3A3B2A3A3A3A3A3A3B087B533
:100B800099F1A3A3A398F1A3A3A3A397A3A3A3A3BA
:100B9000F39BA3A3DCB9A7F1262626D8D8FF292EDC
:100BA0002E2E002900444D5020496E697469616CF5
:100BB000697A6174696F6E206661696C656420286A
:100BC000636F64652000444D502072656164792133
:100BD0002057616974696E6720666F72206669725A
:100BE000737420696E746572727570742E2E2E0087
:100BF000456E61626C696E6720696E7465727275AC
:100C0000707420646574656374696F6E2028417226
:100C10006475696E6F2065787465726E616C2069A9
:100C20006E746572727570742000456E61626C69D5
:100C30006E6720444D502E2E2E004D5055363035C7
:100C40003020636F6E6E656374696F6E20666169D4
:100C50006C6564004D50553630353020636F6E6ED4
:100C6000656374696F6E207375636365737366750E
:100C70006C00496E697469616C697A696E672044B9
:100C80004D502E2E2E0054657374696E6720646576
:100C90007669636520636F6E6E656374696F6E73EA
:100CA0002E2E2E00496E697469616C697A696E67CF
:100CB0002049324320646576696365732E2E2E00C9
:100CC0001D1C11241FBECFEFD1E2DEBFCDBF00E05F
:100CD0000CBF12E0A0E0B2E0E2ECF0E500E00BBFF8
:100CE00002C007900D92A236B107D9F724E0A2E620
:100CF000B2E001C01D92A838B207E1F716E0C1E6E4
:100D0000D6E000E006C021970109802FFE010E9475
:100D10003B26C036D10780E00807A9F70E947D1C5A
:100D20000C945F280C94000008950895AF92BF9230
:100D3000CF92DF92EF92FF920F931F93CF93DF93A7
:100D40006C017B018B01040F151FEB015E01AE18D6
:100D5000BF08C017D10759F06991D601ED91FC91F8
:100D60000190F081E02DC6011995892B79F7C50115
:100D7000DF91CF911F910F91FF90EF90DF90CF9077
:100D8000BF90AF900895FC01538D448D252F30E026
:100D9000842F90E0821B930B541710F0CF96089588
:100DA00001970895FC01918D828D981761F0A28DB5
:100DB000AE0FBF2FB11D5D968C91928D9F5F9F737B
:100DC000928F90E008958FEF9FEF0895FC01918D31
:100DD000828D981731F0828DE80FF11D858D90E09E
:100DE00008958FEF9FEF0895FC01918D228D892F3B
:100DF00090E0805C9F4F821B91098F739927089523
:100E00008CEA93E00E94F40621E0892B09F420E0AB
:100E1000822F0895FC01A48DA80FB92FB11DA35AEC
:100E2000BF4F2C91848D90E001968F739927848F0A
:100E3000A689B7892C93A089B1898C91837080642D
:100E40008C93938D848D981306C00288F389E02DCE
:100E500080818F7D80830895EF92FF920F931F937F
:100E6000CF93DF93EC0181E0888F9B8D8C8D98135D
:100E70001AC0E889F989808185FF15C09FB7F89469
:100E8000EE89FF896083E889F989808183708064B5
:100E900080839FBF81E090E0DF91CF911F910F9100
:100EA000FF90EF900895F62E0B8D10E00F5F1F4F0F
:100EB0000F731127E02E8C8D8E110CC00FB607FC1E
:100EC000FACFE889F989808185FFF5CFCE010E94AC
:100ED0000A07F1CFEB8DEC0FFD2FF11DE35AFF4F09
:100EE000F0829FB7F8940B8FEA89FB89808180623A
:100EF000CFCF0F931F93CF93DF938C01D0E0C0E04F
:100F0000F801EC0FFD1F6491662341F08CEA93E039
:100F10000E942C07892B11F02196F2CFCE01DF9190
:100F2000CF911F910F910895CF93DF93EC01888D9E
:100F30008823B9F0AA89BB89E889F9898C9185FD54
:100F400003C0808186FD0DC00FB607FCF7CF8C91E2
:100F500085FFF2CF808185FFEDCFCE010E940A0789
:100F6000E9CFDF91CF91089580E090E0892B29F0BF
:100F70000E94000781110E94000080E090E0892B10
:100F800049F080E090E0892B29F00E940000811157
:100F90000E94000080E090E0892B49F080E090E022
:100FA000892B29F00E94000081110E94000080E03E
:100FB00090E0892B49F080E090E0892B29F00E9495
:100FC000000081110C94000008958150823108F0D6
:100FD0005AC0E82FF0E08827EF50F84F8F4F0C945D
:100FE0003B2611081508030809080D0843081808CE
:100FF0001E08220828082C08300836083A0843083A
:101000003E0844084808809180008F7780938000D4
:101010000895809180008F7DF9CF80918000877F37
:10102000F5CF84B58F7784BD089584B58F7DFBCFD0
:101030008091B0008F778093B00008958091B000C8
:101040008F7DF9CF809190008F77809390000895E5
:10105000809190008F7DF9CF80919000877FF5CFB0
:101060008091A0008F778093A00008958091A000C8
:101070008F7DF9CF8091A000877FF5CF80912001EF
:101080008F77809320010895809120018F7DF9CF83
:1010900080912001877FF5CFCF93DF93282F30E019
:1010A000F901E052FD4F8491F901E656FD4FD491CC
:1010B000F901EC5AFD4FC491CC23A1F081110E949B
:1010C000E507EC2FF0E0EE0FFF1FE65CFD4FA5916A
:1010D000B491EC91ED2381E090E009F480E0DF91A0
:1010E000CF91089580E090E0FACF1F93CF93DF93E4
:1010F000282F30E0F901E052FD4F8491F901E656C6
:10110000FD4FD491F901EC5AFD4FC491CC23A9F0C5
:10111000162F81110E94E507EC2FF0E0EE0FFF1F64
:10112000E05EFD4FA591B4918FB7F894EC91111149
:1011300008C0D095DE23DC938FBFDF91CF911F9144
:101140000895DE2BF8CFCF93DF9390E0FC01E656B5
:10115000FD4F24918C5A9D4FFC0184918823C9F046
:1011600090E0880F991FFC01EA5FFD4FA591B491B3
:10117000FC01E05EFD4FC591D49161110DC09FB798
:10118000F8948C91209582238C938881282328833E
:101190009FBFDF91CF910895623051F49FB7F894CB
:1011A0003C91822F809583238C93E8812E2BEFCF67
:1011B0008FB7F894EC912E2B2C938FBFEACF1F930F
:1011C000CF93DF93182FEB0161E00E94A3082097D3
:1011D00039F460E0812FDF91CF911F910C94750855
:1011E000CF3FD10511F461E0F5CFE12FF0E0E052FF
:1011F000FD4FE491E150E23108F0B3C0F0E0882700
:10120000EB5FF64F8F4F0C943B2617091F092409FB
:101210002E093809B10942094A0952095C096609CF
:1012200070097F098909B10993099D09A70984B546
:10123000806884BDC7BDDF91CF911F91089584B5AB
:10124000806284BDC8BDF7CF8091800080688093A4
:101250008000D0938900C0938800EDCF80918000FA
:10126000806280938000D0938B00C0938A00E3CF8C
:1012700080918000886080938000D0938D00C0931F
:101280008C00D9CF8091B00080688093B000C0936B
:10129000B300D1CF8091B00080628093B000C09342
:1012A000B400C9CF80919000806880939000D09363
:1012B0009900C0939800BFCF809190008062809386
:1012C0009000D0939B00C0939A00B5CF809190007E
:1012D000886080939000D0939D00C0939C00ABCF1A
:1012E0008091A00080688093A0008091A0008F7BF7
:1012F0008093A000D093A900C093A8009CCF8091B8
:10130000A00080628093A000D093AB00C093AA009D
:1013100092CF8091A00088608093A000D093AD0010
:10132000C093AC0088CF8091200180688093200119
:10133000D0932901C09328017ECF80912001806243
:1013400080932001D0932B01C0932A0174CF809108
:101350002001886080932001D0932D01C0932C013F
:101360006ACFC038D1050CF03ECF33CF3FB7F894E9
:1013700080912A0390912B03A0912C03B0912D030F
:1013800026B5A89B05C02F3F19F00196A11DB11DE0
:101390003FBFBA2FA92F982F8827BC01CD01620F1C
:1013A000711D811D911D42E0660F771F881F991FD7
:1013B0004A95D1F708958F929F92AF92BF92CF92A4
:1013C000DF92EF92FF924B015C010E94B6096B0124
:1013D0007C010E94B6096C197D098E099F09683E3F
:1013E000734081059105A8F321E0821A9108A108B4
:1013F000B10888EEC80E83E0D81EE11CF11C8114F0
:101400009104A104B10429F7FF90EF90DF90CF90F1
:10141000BF90AF909F908F90089508952091020300
:10142000260F3327331F21323105ECF4209182033C
:10143000FC0190E080E0243069F082E00895A09102
:1014400002032191AC014E515D4FA40FB52FB11D88
:101450002C930196861798F380910203680F60938E
:10146000020380E0089581E008951092820381E0F4
:101470008093810310925C0361E084E10E9475080F
:1014800061E085E10E947508E9EBF0E080818E7FE4
:10149000808380818D7F808388E48093B80085E499
:1014A0008093BC000895CF93DF9391E09093E10285
:1014B0008823B9F0C091B800D091BA008091BC00E7
:1014C0008A7B8093BC0060E084E10E94750860E044
:1014D00085E10E9475080E94350AD093BA00C09336
:1014E000B800DF91CF9108958F929F92AF92BF92F3
:1014F000CF92DF92EF92FF920F931F93CF93DF93E0
:10150000D091AB03D13208F0D7C0182FC091AA03F5
:101510000E94B6096B017C018091820381116BC02E
:1015200082E080938203109381038FEF8093800386
:1015300010927F03D0937E03AAE8B3E0EEE5F3E0D8
:1015400080E0D81391C010925D0380915D03CC0FB1
:10155000C82BC0935D0380915C03813009F088C083
:1015600010925C030E94B6096B017C0180915D03BF
:101570008093BB008091840390918503A0918603A2
:10158000B0918703892B8A2B8B2BA1F00E94B6097F
:101590000091840310918503209186033091870385
:1015A0006C197D098E099F09061717072807390747
:1015B00008F442C08091BC0083FDD8CF85EC8093B5
:1015C000BC000E94B6096B017C01809182038230CD
:1015D00009F450C0809180038F3F09F46FC080915F
:1015E0008003803209F46CC080918003803309F459
:1015F00069C084E026C08091840390918503A09106
:101600008603B0918703892B8A2B8B2B09F484CF17
:101610000E94B6098090840390908503A090860371
:10162000B09087036C197D098E099F09861697066D
:10163000A806B90608F070CF809183030E94530A70
:1016400085E0109289031092AB0310928803DF911A
:10165000CF911F910F91FF90EF90DF90CF90BF90AF
:10166000AF909F908F9008959D9191938F5F69CFD8
:1016700085EEA5CF8091840390918503A091860388
:10168000B0918703892B8A2B8B2B09F49ECF0E9464
:10169000B60900918403109185032091860330914F
:1016A00087036C197D098E099F09061717072807FC
:1016B000390708F08ACFC0CF81E0C3CF80E0C1CF27
:1016C00082E0BFCF83E0BDCF0895E09133038091E6
:1016D0003203E81730F4F0E0EF53FD4F808190E0E3
:1016E00008958FEF9FEF0895909133038091320317
:1016F0002FEF3FEF981748F4E92FF0E0EF53FD4F3D
:10170000208130E09F5F90933303C9010895809159
:10171000320390913303891B990B0895CF92DF9286
:10172000EF92FF920F931F93CF93DF937C01CB0136
:101730008A0120918803222389F0EB016B01C40EFA
:10174000D51ECC15DD0569F06991D701ED91FC91AD
:101750000190F081E02DC7011995F3CF642F0E940D
:101760000E0AC801DF91CF911F910F91FF90EF906A
:10177000DF90CF900895CF93DF931F92CDB7DEB760
:101780006983209188032223F9F02091AB03203252
:1017900058F021E030E0FC013383228390E080E0C8
:1017A0000F90DF91CF91089580918903E82FF0E0A9
:1017B000E657FC4F998190838F5F809389038093D4
:1017C000AB0381E090E0ECCF61E0CE0101960E9496
:1017D0000E0AF7CFCF93DF93EA0191E0909388034D
:1017E0008093AA03109289031092AB0389E494E0DA
:1017F0000E94BB0B698189E494E00E94BB0B688165
:1018000089E494E00E94BB0B81E00E94740A91E09D
:10181000811190E0892FDF91CF91089590E080E0D1
:101820000895FF920F931F93CF93DF93042FF22E0F
:10183000132F91E0909388038093AA031092890359
:101840001092AB0389E494E00E94BB0BCF2DD12F03
:101850000C0F1D2F111DC017D10731F0699189E4BC
:1018600094E00E94BB0BF7CF81E00E94740A91E0E4
:10187000811190E0892FDF91CF911F910F91FF90FF
:101880000895CF93DF931F92CDB7DEB749839E01B2
:101890002F5F3F4F41E00E94110C0F90DF91CF91DD
:1018A0000895482F6EE6809171040C94410CCF92FC
:1018B000DF92EF92FF92CF9310924503109246036E
:1018C0001092470310924803C8EC209145033091D1
:1018D000460340914703509148036091B5027091CF
:1018E000B6028091B7029091B8020E9454236B0116
:1018F0007C01C0924503D0924603E0924703F092E8
:1019000048036AE070E080E090E00E94DB09C1508B
:10191000E1F620E030E048E453E4C701B6010E945C
:101920003724609345037093460380934703909355
:101930004803CF91FF90EF90DF90CF90089582E120
:101940000E944C0821E030E0892B11F030E020E0CB
:1019500030935B0320935A0383E00E944C0821E0FC
:1019600030E0892B11F030E020E0309359032093D0
:1019700058030895EF92FF920F931F93CF93DF9335
:101980008BE20E944C08EC019093B2028093B1026A
:1019900089E20E944C087C019093B0028093AF02D0
:1019A0008FE20E944C088C019093AE028093AD02AE
:1019B00081E30E944C08CC0FDD1FCE0DDF1DCC0F44
:1019C000DD1FC00FD11FCC0FDD1F8C0F9D1F90930B
:1019D000B4028093B302DF91CF911F910F91FF90DA
:1019E000EF90089583E10E944C08892B89F482E3EB
:1019F0000E944C08892B89F48091A5029091A6023F
:101A0000A091A702B091A8020196A11DB11D10C01E
:101A100082E30E944C08892B79F78091A50290916E
:101A2000A602A091A702B091A8020197A109B1094D
:101A30008093A5029093A602A093A702B093A80258
:101A4000089582E00E944C08892B89F483E30E9468
:101A50004C08892B89F48091A9029091AA02A09147
:101A6000AB02B091AC020197A109B10910C083E3A8
:101A70000E944C08892B79F78091A9029091AA02C3
:101A8000A091AB02B091AC020196A11DB11D809353
:101A9000A9029093AA02A093AB02B093AC0208955E
:101AA000CF93DF93EC0116161706E4F485E00E944D
:101AB000DF0870E060E086E00E94DF08BE0164504D
:101AC00071091C161D0624F02097E1F470E060E017
:101AD0008EE20E94DF0870E060E08CE2DF91CF913F
:101AE0000C94DF086115710519F470E060E0DECF39
:101AF00071956195710986E00E94DF0870E060E0F1
:101B000085E0DACF6CEF7FEF6C1B7D0B8CE20E94DF
:101B1000DF0870E060E08EE2E1CF8F929F92AF929B
:101B2000BF92CF92DF92EF92FF924B01770FAA08FC
:101B3000BB08029709F4D4C00E94BA0CC0905003AD
:101B4000D0905103E0905203F090530320E030E036
:101B500044EB53E4C701B6010E94B82518165CF4A3
:101B600020E030E044EB53E4C701B6010E94532368
:101B70006B017C01EBCF20E030E044EB53ECC7017C
:101B8000B6010E94322487FF0BC020E030E044EB16
:101B900053E4C701B6010E9454236B017C01EBCFD3
:101BA000C0925003D0925103E0925203F09253033B
:101BB0006DE770E084E79FEF0E94500DC501B4010E
:101BC0000E94E1249B01AC01C701B6010E9453238E
:101BD0006B017C0120E030E0A9010E94B8251816B5
:101BE000FCF420E030E040EC5FE3C701B6010E9466
:101BF000B82518160CF4A0CF68E87FEF88E790E0CE
:101C00000E94500D64E670E080E090E0FF90EF905D
:101C1000DF90CF90BF90AF909F908F900C94DB0996
:101C200020E030E040EC5FEBC701B6010E943224B7
:101C300087FD82CFE1CF20E030E044EB53ECC701D9
:101C4000B6010E94322487FF0BC020E030E044EB55
:101C500053E4C701B6010E9454236B017C01EBCF12
:101C6000C0925003D0925103E0925203F09253037A
:101C700069E77FEF82E890E00E94500DC501B40152
:101C80000E94E1249B01AC01C701B6010E945323CD
:101C90006B017C0120E030E0A9010E94B8251816F4
:101CA000ACF420E030E040EC5FE3C701B6010E94F5
:101CB000B8251816ACF060E570E080EB9FEF0E944D
:101CC000500D62E370E080E090E0A0CF20E030E0D3
:101CD00040EC5FEBC701B6010E94322487FFEBCFD7
:101CE000C0905003D0905103E0905203F090530302
:101CF00020E030E044EB53E4C701B6010E94B82570
:101D000018160CF098CF20E030E044EB53E4C70104
:101D1000B6010E9453236093500370935103809344
:101D2000520390935303DCCF4F925F926F927F9256
:101D30008F929F92AF92BF92CF92DF92EF92FF92DB
:101D40000F931F93CF93DF93EA01809050039090FD
:101D50005103A0905203B090530340904103509020
:101D6000420360904303709044036B01770FEE08C9
:101D7000FF08892B09F479C00E949F0C0E94BA0CBD
:101D8000A3019201C501B4010E9453234B015C01E0
:101D9000C701B6010E94E1249B01AC01C501B40159
:101DA0000E9453230E94A9248B01000F111F000FD2
:101DB000111F0115110541F56CE870E08EEB90E004
:101DC0000E94500D62E070E080E090E00E94DB092C
:101DD00064E670E088E790E00E94500D6AE070E0F1
:101DE00080E090E0DF91CF911F910F91FF90EF90F5
:101DF000DF90CF90BF90AF909F908F907F906F902B
:101E00005F904F900C94DB0902301105BCF0C801C3
:101E10008D539F4F6CE870E08C0F9D1F0E94500DFA
:101E200062E070E080E090E00E94DB09C8018F561C
:101E30009F4F64E670E08C0F9D1FCECFBE01601BEC
:101E4000710B6A567F4F85EA90E00E94500D62E068
:101E500070E080E090E00E94DB09BE01601B710B26
:101E600062597F4F8EE690E0B7CFA3019201C50182
:101E7000B4010E9453234B015C01C701B6010E94CB
:101E8000E1249B01AC01C501B4010E9453230E94CF
:101E9000A92475956795CB0177FF04C088279927FA
:101EA000861B970B4597BCF08CEE9FEF1616170616
:101EB0009CF484E190E0623071053CF1885791090F
:101EC0006BE57FEF8C1B9D0B0E94500D62E070E074
:101ED00080E090E087CFCB016115710561F76EE777
:101EE0007FEF8FE69FEFDF91CF911F910F91FF90D2
:101EF000EF90DF90CF90BF90AF909F908F907F90AA
:101F00006F905F904F900C94500D6EE77FEF681BC1
:101F1000790B6C1B7D0B85E69FEFD6CF0F931F933C
:101F2000CF93DF938C01EB010E949F0C0E94BA0CAF
:101F3000012B09F439C0E091B302F091B402E03111
:101F4000F10508F037C08827E755F04F8F4F0C9404
:101F50003B26B90FD00FCD0FD00FCA0FDA0FB90F34
:101F6000DA0FBD0FDA0FDA0FDA0FBD0FDA0FDA0F63
:101F7000B90F50E040E0BE0105C0BE016D5F7F4F6C
:101F800044E150E081E090E0DF91CF911F910F910B
:101F90000C94940E4BEF5FEFEECF45E050E0EBCFAB
:101FA000BE0163507109ECCF50E040E0BE0190E00B
:101FB00080E0EACFDF91CF911F910F9108958F922A
:101FC0009F92AF92BF92CF92DF92EF92FF920F93C8
:101FD0001F93CF93DF936C015B0109E51BE1D0E018
:101FE000C0E0F12CE12CB50190E080E00E948E0F62
:101FF00083E20E944C084C01909357038093560350
:1020000085E20E944C0890935503809354038A9470
:102010008928E9F00197D9F0C130D10529F48FEF73
:10202000E81AF80AD0E0C0E00150110919F0EC14E8
:10203000FD04CCF2DF91CF911F910F91FF90EF90B3
:10204000DF90CF90BF90AF909F908F900895C1E0A8
:10205000D0E0EACFFC0101900020E9F73197AF0111
:10206000481B590BBC018CEA93E00C9496068F92A6
:102070009F92AF92BF920F931F93CF93DF93CDB7F1
:10208000DEB7A1970FB6F894DEBF0FBECDBF19A281
:10209000423008F44AE08E010F5D1F4F842E912CD0
:1020A000B12CA12CA50194010E943123E62FB90186
:1020B000CA01EA30F4F4E05DD801EE938D01232BE0
:1020C000242B252B79F790E080E0109719F0CD01B3
:1020D0000E942A10A1960FB6F894DEBF0FBECDBFA6
:1020E000DF91CF911F910F91BF90AF909F908F90F4
:1020F0000895E95CE1CFCF93DF93682F8CEA93E0FA
:102100000E942C07EC018AE392E00E942A108C0FB7
:102110009D1FDF91CF910895EF92FF920F931F9330
:10212000CF93DF93EC017B01BC0181E090E00E9442
:102130008D0D70E060E090E080E00E94500D68EC52
:1021400070E080E090E00E94DB090E949F0C01E7B4
:1021500017E180915A0390915B03892B81F0809164
:10216000580390915903892B51F00E949F0CBE0196
:1021700081E090E00E948E0F0150110951F787E332
:102180000E947B1070E060E090E080E00E94500DC3
:1021900061E084E30E94750868E57BE180E090E0FF
:1021A0000E94DB0960E084E30E947508BE01C7015C
:1021B0000E94DF0FBE0181E090E00E948E0F60E977
:1021C00071E080E090E00E94DB09BE016A55710970
:1021D00082E090E00E948D0D70E060E090E080E091
:1021E0000E94500D60E273E080E090E0DF91CF91BB
:1021F0001F910F91FF90EF900C94DB09CF93DF9329
:102200000E947907EC018AE392E00E942A108C0F69
:102210009D1FDF91CF9108954F925F926F927F92B1
:102220008F929F92AF92BF92CF92DF92EF92FF92E6
:102230006B017C01AC019B010E9436268823C1F012
:102240008DE392E00E942A107C018AE392E00E94D2
:102250002A108E0D9F1DFF90EF90DF90CF90BF90C2
:10226000AF909F908F907F906F905F904F90089568
:1022700046015701E894B7F82FEF3FEF4FE75FE7CC
:10228000C501B4010E94362681110DC02FEF3FEF2A
:102290004FE75FE7C501B4010E94322418161CF411
:1022A00081E492E0CFCF2FEF3FEF4FE75FE4C7012C
:1022B000B6010E94B82518161CF485E492E0C2CF3E
:1022C0002FEF3FEF4FE75FECC701B6010E943224CA
:1022D00087FDF3CF20E030E0A901C701B6010E94DD
:1022E0003224B12CA12C87FF0AC06DE28CEA93E066
:1022F0000E942C075C01F7FAF094F7F8F0942AE0BA
:1023000037ED43EA5BE3C701B6010E9454232B017A
:102310003C010E94B0246B017C010E94DF249B01E0
:10232000AC01C301B2010E9453232B013C014AE0DE
:10233000C701B6010E9437107C01EA0CFB1C6EE25B
:102340008CEA93E00E942C07E80EF91E20E030E0B2
:1023500040E251E4C301B2010E94C5252B013C01BA
:102360000E94B0244B01B12CA12C4AE0C501B4015C
:102370000E943710E80EF91EC501B4010E94DF2447
:102380009B01AC01C301B2010E94532320E030E065
:1023900040E251E40E94C5250E94B02490E080E014
:1023A0004AE00E943710E80EF91E4FCFCF92DF921D
:1023B000EF92FF92CF93DF9397FF1BC06B017C01DD
:1023C0006DE28CEA93E00E942C07EC0166277727E8
:1023D000CB016C197D098E099F094AE00E943710D4
:1023E0008C0F9D1FDF91CF91FF90EF90DF90CF90EA
:1023F00008954AE0DF91CF91FF90EF90DF90CF906A
:102400000C9437104F925F926F927F928F929F92AF
:10241000AF92BF92CF92DF92EF92FF920F931F93F2
:10242000CF93DF93EC010E949F0CF12CE12C0E94D2
:102430009F0C80915A0390915B03BE01892B31F070
:102440008091580390915903892BD9F481E090E051
:102450000E94DF0F63E070E0CE01865A9F4FDF914C
:10246000CF911F910F91FF90EF90DF90CF90BF9091
:10247000AF909F908F907F906F905F904F900C9453
:102480008C1081E090E00E948E0F83E20E944C0845
:102490008C01909357038093560385E20E944C0869
:1024A00090935503809354030130110511F0019767
:1024B000B9F4FF24F394E12C10E000E0BE0181E0C8
:1024C00090E00E948E0F0115110509F4B0CFD12CB8
:1024D000C12CF12CE12C5E012AE5A20EB11C08C032
:1024E0000F2D1E2DF12CE12CE9CF81E090E06C0145
:1024F0000E949F0C80915A0390915B03892B31F0CD
:102500008091580390915903892B49F4BE0181E0D1
:1025100090E00E94DF0F680185E0E82EF12CBE01FB
:1025200081E090E00E948E0F83E20E944C084C01F3
:10253000909357038093560385E20E944C08909332
:102540005503809354038A94892879F28130910548
:1025500071F281E0C816D10409F065C02FEFE21ACC
:10256000F20A70E060E090E080E00E94500D64EFBD
:1025700071E080E090E00E94DB09BE0190E080E025
:102580000E948E0F62EC71E080E090E00E94DB0917
:1025900086E0E816F10409F048C089E492E00E9460
:1025A0002A1063E070E0C5010E948C1001E717E17A
:1025B00080915A0390915B03892B31F480915803E9
:1025C00090915903892B41F0BE0181E090E00E9477
:1025D0008E0F0150110961F770E060E090E080E03B
:1025E0000E94500D8091500390915103A09152038D
:1025F000B091530380934C0390934D03A0934E03EB
:10260000B0934F03DF91CF911F910F91FF90EF9007
:10261000DF90CF90BF90AF909F908F907F906F9002
:102620005F904F900895C60162CF70E060E090E047
:1026300080E00E94500D81E30E947B1061E070E019
:10264000C5010E948C106CE870E08AEA90E00E945C
:10265000500D62E370E080E090E00E94DB09412CC5
:10266000512C3201C301B2010E94D6118AE392E0DB
:102670000E942A10BE0181E090E00E948E0F2FEF91
:10268000421A520A620A720A88EC4816510461041E
:10269000710441F790E080E02ACF2F923F924F9251
:1026A0005F926F927F928F929F92AF92BF92CF92E2
:1026B000DF92EF92FF920F931F93CF93DF9300D09F
:1026C00000D000D01F92CDB7DEB7E82ED62EF42E64
:1026D0003A83298318018FB7F894409026035090CD
:1026E000270360902803709029038FBFCE2CCC0C59
:1026F00000E01A8611E0242F30E03C832B83C101D7
:10270000B0E0A0E08D839E83AF83B8870F1508F0FB
:102710001DC110938803E092AA03109289031092BE
:10272000AB036D2D89E494E00E94BB0B81E00E9415
:10273000740A10938803109289031092AB030E94CD
:10274000B6094B015C0180918203811175C08B81B8
:102750009C81801B91098132910514F080E290E008
:102760008987813210F090E2998710938203109349
:102770008103AFEFA093800310927F03898581507E
:1027800080937E0310935D0380915D038C29809379
:102790005D0380915C03813009F092C010925C036C
:1027A0000E94B6094B015C0180915D038093BB00E0
:1027B0008091840390918503A0918603B091870353
:1027C000892B8A2B8B2BA1F00E94B60920918403C0
:1027D00030918503409186035091870368197909E8
:1027E0008A099B09261737074807590708F445C087
:1027F0008091BC0083FDD8CFB5ECB093BC000E94A3
:10280000B6094B015C0180918203813009F45CC000
:1028100080917F033985831718F440917F0349879E
:10282000EEE5F3E0A1ECB2E080E05985851751F1C7
:1028300091919D938F5FF9CF80918403909185034F
:10284000A0918603B0918703892B8A2B8B2B09F4E7
:102850007ACF0E94B609209184033091850340917C
:10286000860350918703681979098A099B092617FD
:1028700037074807590708F066CF809183030E9405
:10288000530A1986109233038985809332039091FD
:10289000320380913303981709F451C02114310495
:1028A000A9F589E494E00E94740BE981FA819A8584
:1028B000E90FF11D97FDFA9580839F5F9A87E7CF17
:1028C00025EE2093BC009BCF8091840390918503DB
:1028D000A0918603B0918703892B8A2B8B2B09F457
:1028E00092CF0E94B60920918403309185034091D4
:1028F000860350918703681979098A099B0926176D
:1029000037074807590708F07ECFB7CF2FB7F8949D
:102910008091260390912703A0912803B091290369
:102920002FBF84199509A609B7092D813E814F81D2
:10293000588582179307A407B50708F4B2CF8F2DE7
:1029400030E23F1508F480E2080FE0CE2114310494
:1029500009F18FB7F89440912603509127036091B5
:102960002803709129038FBF441955096609770917
:10297000C101B0E0A0E0481759076A077B0750F093
:102980004A85842F440F990BF816190619F014F094
:102990005FEF5A878A852A960FB6F894DEBF0FBE7E
:1029A000CDBFDF91CF911F910F91FF90EF90DF90FE
:1029B000CF90BF90AF909F908F907F906F905F90DF
:1029C0004F903F902F9008950F931F93CF93DF93D5
:1029D000C1E7D4E008EE13E022E734E042E062E72A
:1029E00088810E944D1389819A8198278927982789
:1029F000DF91CF911F910F9108950F931F9366233D
:102A000061F0462F9C0108EE13E064E780917104A9
:102A10000E944D131F910F910895FC011082FACF6F
:102A2000CF92DF92EF92FF920F931F93CF93DF939A
:102A30001F92CDB7DEB7F82EE62EC42ED22E08EEAA
:102A400013E09E012F5F3F4F41E00E944D1381E054
:102A500090E001C0880FCA94EAF74981DD2081F037
:102A6000482B49836E2D8F2D0E94410C0F90DF91D2
:102A7000CF911F910F91FF90EF90DF90CF9008952D
:102A800080954823EECF21E042E06AE68091710410
:102A90000C941015EF92FF920F931F93CF93DF9337
:102AA0001F92CDB7DEB77A0189019E012F5F3F4F9C
:102AB00041E00E944D13882339F029812E7730E0C0
:102AC00035952795F70120830F90DF91CF911F91C6
:102AD0000F91FF90EF900895BF92CF92DF92EF9207
:102AE000FF920F931F93CF93DF931F92CDB7DEB763
:102AF000F82EE62EC42EB22ED02E08EE13E09E0144
:102B00002F5F3F4F41E00E944D13882371F18C2DC0
:102B10008B19990BAC014F5F5F4F81E090E002C0D1
:102B2000880F991FBA94E2F70197042E01C0880F0D
:102B30000A94EAF70D2D01C0000F4A95EAF7482FD5
:102B40004095998149238023482B49836E2D8F2DF1
:102B50000E94410C0F90DF91CF911F910F91FF9038
:102B6000EF90DF90CF90BF90089580E0F3CF2F9249
:102B70003F924F925F926F927F928F929F92AF920D
:102B8000BF92CF92DF92EF92FF920F931F93CF935A
:102B9000DF933C015B01242E522E302E4F716DE6E7
:102BA000809171040E94410C852D0E94510C80E19E
:102BB00090E00E9443266C01F12CE12C002329F0C7
:102BC00080E190E00E9443267C01D0E0C0E0CA157D
:102BD000DB0508F080C0CE014096A816B906E8F4DF
:102BE0004A2C4C1A80E091E0851991094816190683
:102BF00019F014F0452C4194332091F0D70190E066
:102C000080E093012C0F3D1F841568F4F901E80F53
:102C1000F91FE491ED930196F7CF80E1482EE2CFC2
:102C20007301EC0EFD1E9701442D6FE68091710437
:102C30000E94110C842C912CC114D104B9F1422DA5
:102C40004F716DE6809171040E94410C852D0E94A8
:102C5000510C08EE13E09601442D6FE6809171044B
:102C60000E944D13A401B601C7010E944928892B77
:102C7000E9F0C6010E94DF26332021F0C7010E943F
:102C8000DF26312C832DDF91CF911F910F91FF9083
:102C9000EF90DF90CF90BF90AF909F908F907F90FC
:102CA0006F905F904F903F902F900895C80DD91D61
:102CB000540CCA15DB0508F08ACF511001C02394CB
:102CC000422D4F716DE6809171040E94410C852D5B
:102CD0000E94510C7CCFC6010E94DF26332021F0D8
:102CE000C7010E94DF26CECF33243394CBCF85EDAE
:102CF0008093BC008091840390918503A09186030A
:102D0000B09187030796A11DB11D23E0B695A79545
:102D1000979587952A95D1F72091BC0024FD03C093
:102D2000109282030895409184035091850360912D
:102D3000860370918703452B462B472B69F3009739
:102D4000A105B10541F025E32A95F1F700000197AF
:102D5000A109B109E1CF809183030C94530A4F92EA
:102D60005F926F927F928F929F92AF92BF92CF921B
:102D7000DF92EF92FF92CF93DF93CDB7DEB76097EC
:102D80000FB6F894DEBF0FBECDBF0E94E4147C01E5
:102D90009093A4028093A302E11484E0F806E8F083
:102DA0000E9443150E94E4149093A4028093A3020E
:102DB00060960FB6F894DEBF0FBECDBFDF91CF9106
:102DC000FF90EF90DF90CF90BF90AF909F908F904B
:102DD0007F906F905F904F900895C0904903D0907E
:102DE0004A03CE14DF0420F76C2D83E692E00E94A4
:102DF000FD14EC18FD08F092A402E092A30260908A
:102E0000670270906802762467247624A0906B0293
:102E1000B0906C02BA24AB24BA2480906F029090D8
:102E2000700298248924982460916302709164024E
:102E3000762767277627072E000C880B990B0E94B0
:102E4000E12420E030E040E858E30E94C5256B0112
:102E50007C01C0926104D0926204E0926304F0921B
:102E60006404B301770C880B990B0E94E12420E0E5
:102E700030E040E858E30E94C5252B013C01409218
:102E80006504509266046092670470926804B5010C
:102E9000BB0C880B990B0E94E12420E030E040E855
:102EA00058E30E94C52569837A838B839C83609352
:102EB000690470936A0480936B0490936C04B4016A
:102EC000990C880B990B0E94E12420E030E040E847
:102ED00058E30E94C5256D837E838F839887609316
:102EE0006D0470936E0480936F0490937004A70137
:102EF0009601C701B6010E9454234B015C01A30156
:102F00009201C301B2010E94542369877A878B879B
:102F10009C87A7019601C501B4010E94C5256B01DC
:102F20007C01A301920169857A858B859C850E942D
:102F3000C5259B01AC01C701B6010E94542320E0C6
:102F400030E040E85FE30E9453236D877E878F87E0
:102F5000988B29813A814B815C8169857A858B8543
:102F60009C850E94C5256B017C012D813E814F818E
:102F70005885C501B4010E94C5259B01AC01C7015C
:102F8000B6010E9454232D853E854F8558890E94A5
:102F9000D32320E030E044E353E40E94C5252BED29
:102FA0003FE049E450E40E9437246093B5027093F7
:102FB000B6028093B7029093B802FACE78948091CB
:102FC000A9029091AA02A091AB02B091AC0210921A
:102FD000A9021092AA021092AB021092AC02809148
:102FE000A5029091A602A091A702B091A80210920A
:102FF000A5021092A6021092A7021092A8020E94A7
:10300000AF162091450330914603409147035091FC
:1030100048036091B5027091B6028091B702909119
:10302000B8020E945323609350037093510380931E
:103030005203909353038AE592E00E942A10609114
:1030400050037091510380915203909153030C945B
:103050000C11CF93C8EC0E94AF1662E070E080E0E4
:1030600090E00E94DB09C150B1F7CF910895CF9253
:10307000DF92EF92FF92CF93109245031092460396
:103080001092470310924803C8EC0E94AF1620919B
:1030900045033091460340914703509148036091A6
:1030A000B5027091B6028091B7029091B8020E9469
:1030B00054236B017C01C0924503D0924603E092F9
:1030C0004703F09248036AE070E080E090E00E94DD
:1030D000DB09C150D1F620E030E048E453E4C701F9
:1030E000B6010E9437246093450370934603809392
:1030F000470390934803CF91FF90EF90DF90CF90DC
:1031000008951F920F920FB60F9211240BB60F92D3
:103110002F933F934F935F936F937F938F939F93DF
:10312000AF93BF93EF93FF938CEA93E00E940A075B
:10313000FF91EF91BF91AF919F918F917F916F918F
:103140005F914F913F912F910F900BBE0F900FBE4B
:103150000F901F9018951F920F920FB60F92112487
:103160000BB60F922F938F939F93EF93FF93E09162
:10317000BC03F091BD038081E091C203F091C303D1
:1031800082FD1DC090818091C5038F5F8F73209158
:10319000C603821741F0E091C503F0E0E455FC4F0F
:1031A000958F8093C503FF91EF919F918F912F9100
:1031B0000F900BBE0F900FBE0F901F90189580813F
:1031C000F2CF1F920F920FB60F9211242F933F93BD
:1031D0008F939F93AF93BF93809126039091270382
:1031E000A0912803B09129033091250323E0230FF8
:1031F0002D3758F50196A11DB11D2093250380930D
:10320000260390932703A0932803B093290380916A
:103210002A0390912B03A0912C03B0912D030196CA
:10322000A11DB11D80932A0390932B03A0932C031F
:10323000B0932D03BF91AF919F918F913F912F91AB
:103240000F900FBE0F901F90189526E8230F02963F
:10325000A11DB11DD2CF1F920F920FB60F92112454
:103260000BB60F922F933F934F935F936F937F9380
:103270008F939F93AF93BF93EF93FF93E0910E02D1
:10328000F0910F021995FF91EF91BF91AF919F912E
:103290008F917F916F915F914F913F912F910F90FF
:1032A0000BBE0F900FBE0F901F9018951F920F929C
:1032B0000FB60F9211240BB60F922F933F934F939B
:1032C0005F936F937F938F939F93AF93BF93EF938E
:1032D000FF93E0910C02F0910D021995FF91EF918F
:1032E000BF91AF919F918F917F916F915F914F911E
:1032F0003F912F910F900BBE0F900FBE0F901F901C
:1033000018951F920F920FB60F9211240BB60F92C1
:103310002F933F934F935F936F937F938F939F93DD
:10332000AF93BF93EF93FF93E0910202F0910302FA
:103330001995FF91EF91BF91AF919F918F917F91DF
:103340006F915F914F913F912F910F900BBE0F9016
:103350000FBE0F901F9018951F920F920FB60F92ED
:1033600011240BB60F922F933F934F935F936F935C
:103370007F938F939F93AF93BF93EF93FF93E091CE
:103380000002F09101021995FF91EF91BF91AF9169
:103390009F918F917F916F915F914F913F912F916D
:1033A0000F900BBE0F900FBE0F901F9018951F929D
:1033B0000F920FB60F9211240BB60F922F933F93DB
:1033C0004F935F936F937F938F939F93AF93BF932D
:1033D000EF93FF93E0910A02F0910B021995FF9190
:1033E000EF91BF91AF919F918F917F916F915F917D
:1033F0004F913F912F910F900BBE0F900FBE0F90EA
:103400001F9018951F920F920FB60F9211240BB6B2
:103410000F922F933F934F935F936F937F938F936D
:103420009F93AF93BF93EF93FF93E0910802F091C6
:1034300009021995FF91EF91BF91AF919F918F91E3
:103440007F916F915F914F913F912F910F900BBEA4
:103450000F900FBE0F901F9018951F920F920FB6EE
:103460000F9211240BB60F922F933F934F935F93BC
:103470006F937F938F939F93AF93BF93EF93FF933C
:10348000E0910602F09107021995FF91EF91BF912B
:10349000AF919F918F917F916F915F914F913F91EC
:1034A0002F910F900BBE0F900FBE0F901F9018958D
:1034B0001F920F920FB60F9211240BB60F922F93FB
:1034C0003F934F935F936F937F938F939F93AF93AC
:1034D000BF93EF93FF93E0910402F09105021995D9
:1034E000FF91EF91BF91AF919F918F917F916F91DC
:1034F0005F914F913F912F910F900BBE0F900FBE98
:103500000F901F9018951F920F920FB60F921124D3
:103510000BB60F922F933F934F935F936F937F93CD
:103520008F939F93AF93BF93EF93FF938091B900D5
:10353000887F803609F44DC008F040C0883209F415
:10354000A9C028F5803109F49DC0C8F4882309F486
:10355000FBC0883009F496C0FF91EF91BF91AF9105
:103560009F918F917F916F915F914F913F912F919B
:103570000F900BBE0F900FBE0F901F9018958831C3
:1035800009F488C0803241F78093800314C08034EE
:1035900009F49DC040F48033B9F38833E9F6809391
:1035A000800385ECB0C0803509F485C0883509F406
:1035B00096C0883489F60E947716CECF883909F4F0
:1035C0008CC038F5883729F050F4883611F08037F0
:1035D00019F683E0809382031092240357C0883841
:1035E00009F47BC0803919F0803809F0B5CF80919B
:1035F0002403803208F071C0E091240381E08E0F33
:10360000809324038091BB00F0E0EC5FFC4F80834B
:103610003DC0803B39F0E0F4803A09F479C0883A43
:1036200009F09ACF84E080938203109203031092F2
:103630000203E0913003F091310319958091020368
:1036400081110FC081E0809302031092E20209C051
:10365000803C09F4A6CF883C09F4A3CF883B09F04D
:103660007BCFE091030381E08E0F80930303F0E0B2
:10367000EE51FD4F80818093BB00909103038091B8
:10368000020329C080915D038093BB0085EC809389
:10369000BC0062CF90917F0380917E03981758F50C
:1036A000E0917F0381E08E0F80937F03F0E0E25A88
:1036B000FC4F8081E9CFE0917F0381E08E0F809302
:1036C0007F038091BB00F0E0E25AFC4F8083909131
:1036D0007F0380917E039817C8F285E8D8CFE091E8
:1036E0007F0381E08E0F80937F038091BB00F0E029
:1036F000E25AFC4F80838091810381115CCF81E08D
:1037000080935C0384EA8093BC001092820324CFF0
:1037100085EC8093BC001092820380912403803258
:1037200030F4E0912403F0E0EC5FFC4F10826091F4
:10373000240370E0E0912E03F0912F0384E093E0E6
:1037400019951092240308CF1092800334CF1F9252
:103750000F920FB60F9211240BB60F922F933F9337
:103760004F935F936F937F938F939F93AF93BF9389
:10377000EF93FF9380913A0390913B038093B200C3
:1037800080913D0390913E03A0913F03B09140038F
:103790000196A11DB11D80933D0390933E03A0931C
:1037A0003F03B093400380913D0390913E03A0916D
:1037B0003F03B0914003409136035091370360912D
:1037C00038037091390384179507A607B70710F1DE
:1037D00080913C0381111EC081E080933C03809165
:1037E0003D0390913E03A0913F03B0914003841BA1
:1037F000950BA60BB70B80933D0390933E03A093CC
:103800003F03B0934003E0913403F09135031995E1
:1038100010923C03FF91EF91BF91AF919F918F91D7
:103820007F916F915F914F913F912F910F900BBEC0
:103830000F900FBE0F901F901895ECEAF3E01382E3
:10384000128288EE93E0A0E0B0E084839583A683A3
:10385000B7832AE132E03183208325EC30E03587DD
:10386000248724EC30E03787268720EC30E0318B4A
:10387000208B21EC30E0338B228B22EC30E0358B37
:10388000248B26EC30E0378B268B118E128E138E14
:10389000148EE9E4F4E01382128284839583A68374
:1038A000B7838CE292E09183808388E680937104F1
:1038B000E1E6F4E080E090E0A0E8BFE3808391835C
:1038C000A283B38314821582168217821086118612
:1038D000128613861486158616861786E5E5F4E0AB
:1038E000108211821282138214821582168217822C
:1038F00010861186128613860895CF93DF93CDB775
:10390000DEB7C459D1090FB6F894DEBF0FBECDBFE4
:10391000789484B5826084BD84B5816084BD85B5AA
:10392000826085BD85B5816085BD80916E008160B6
:1039300080936E001092810080918100826080935C
:10394000810080918100816080938100809180005E
:103950008160809380008091B10084608093B10089
:103960008091B00081608093B0008091910082606E
:10397000809391008091910081608093910080916B
:1039800090008160809390008091A100826080937C
:10399000A1008091A10081608093A1008091A0008E
:1039A00081608093A0008091210182608093210139
:1039B00080912101816080932101809120018160AB
:1039C0008093200180917A00846080937A008091B6
:1039D0007A00826080937A0080917A00816080937F
:1039E0007A0080917A00806880937A001092C100FA
:1039F0001092330310923203109289031092AB039A
:103A00000E94350A84E996E0909331038093300355
:103A100085E996E090932F0380932E038CE08093AA
:103A2000B800E091BC03F091BD0382E08083E09197
:103A3000B803F091B9031082E091BA03F091BB038F
:103A400080E180831092C403E091C003F091C10330
:103A500086E08083E091BE03F091BF0380818061A6
:103A60008083E091BE03F091BF03808188608083F2
:103A7000E091BE03F091BF03808180688083E09174
:103A8000BE03F091BF0380818F7D808384EA9CE038
:103A90000E94FE1001E023E042E06BE68091710499
:103AA0000E946C1500E022E044E06BE1809171041B
:103AB0000E946C1522E044E06CE1809171040E9448
:103AC0006C1520E046E06BE6809171040E941015B1
:103AD00086E89CE00E94FE1028EE33E042E754E0C6
:103AE00065E7809171040E944A15809172048433C5
:103AF00009F02EC384E59CE00E94FE1082E79CE062
:103B00000E94FE1021E047E06BE6809171040E9464
:103B100010156EE170E080E090E00E94DB0920E08B
:103B200046E06BE6809171040E94101540E76DE657
:103B3000809171040E94410C86E00E94510C40E08B
:103B40006DE6809171040E94410C28EE33E042E75B
:103B500054E060E0809171040E944A1570907204F4
:103B600028EE33E042E754E061E0809171040E9466
:103B70004A158090720428EE33E042E754E062E098
:103B8000809171040E944A15909072044FE765E29B
:103B9000809171040E94410C20E045E06AE680912A
:103BA00071040E94101548E665E2809171040E943C
:103BB000410C21E041E06AE6809171040E941015F9
:103BC00064E170E080E090E00E94DB0901E020E029
:103BD00040E069E877E085E194E00E94B71511E0E4
:103BE000882309F441C088E090E00E9443267C01CC
:103BF00010E000E0F801EB5AFC4F6490F801EA5A3B
:103C0000FC4F5490680183E0C80ED11CF801E95ABA
:103C1000FC4FE491EE2309F49EC2AE2EB12CE330AA
:103C200028F0B501C7010E9468277C01D70190E008
:103C300080E0085A1C4FF801E80FF91FE491ED935A
:103C400001968A159B05B8F300E0252D462DB50198
:103C5000C7010E94B71586010A0D1B1D81118AC27A
:103C6000C7010E94DF2612E010934B03809171047C
:103C7000CD56DF4F19821882C359D040AE014D5640
:103C80005F4F63E10E94EA0B80917104CF56DF4FD2
:103C900019821882C159D040AE014F565F4F65E17D
:103CA0000E94EA0B80917104CF57DF4F198218826E
:103CB000C158D040AE014F575F4F67E10E94EA0BF9
:103CC0008091710428E936E03A832983AE014F5F81
:103CD0005F4F6AE00E94EA0B1111B3C48AE29CE0D4
:103CE0000E94FE1021E047E06AE6809171040E9484
:103CF000101580EF9BE00E94790708EE13E022E7A1
:103D000034E041E06AE3809171040E944D136091B8
:103D1000720470E090E080E04AE00E9437108AE38D
:103D200092E00E942A1086EC9BE00E94FE10809197
:103D300082049091830490934A038093490361E045
:103D400086E00E94A30861E08EE20E94A30861E081
:103D500085E00E94A30861E08CE20E94A30861E074
:103D600085E30E94A30862E082E00E94A30862E06B
:103D700083E10E94A30862E083E30E94A30862E05B
:103D800082E30E94A30860E082E10E94A30860E051
:103D900083E00E94A30860E08BE20E94A30860E039
:103DA00089E20E94A30860E08FE20E94A30860E01D
:103DB00081E30E94A3086CE271E080E090E00E9441
:103DC000DB0968EC70E080E090E00E94DB090E9473
:103DD00037188EE592E00E942A1060914503709199
:103DE000460380914703909148030E940C110E9462
:103DF00037188EE592E00E942A1060914503709179
:103E0000460380914703909148030E940C110E9441
:103E100029180E94291861E085E30E9475080E9414
:103E200037188EE592E00E942A1060914503709148
:103E3000460380914703909148030E940C110E9411
:103E400037188EE592E00E942A1060914503709128
:103E5000460380914703909148030E940C110E94F1
:103E600029180E94291881E090E0A0E0B0E080933A
:103E7000360390933703A0933803B09339038EED44
:103E800097E19093350380933403809170008E7F87
:103E9000809370008091B0008C7F8093B0008091FF
:103EA000B100877F8093B1008091B6008F7D8093B1
:103EB000B600809170008D7F809370008091B1007A
:103EC00084608093B1008091B1008C7F8093B100B9
:103ED00086E090E090933B0380933A0310923D0379
:103EE00010923E0310923F031092400310923C0345
:103EF00080913A0390913B038093B20080917000CF
:103F000081608093700068EE73E080E090E00E9432
:103F1000DB090E94570C8EE592E00E942A10609106
:103F200045037091460380914703909148030E9496
:103F30000C110E94570C8EE592E00E942A106091AD
:103F400045037091460380914703909148030E9476
:103F50000C1160E070E0CB010E94D6118EE99BE06D
:103F60000E94FE1081E29DE0909301028093000286
:103F700080916A008C7F816080936A00EC9A82EF66
:103F80009CE09093090280930802809169008F7CE5
:103F9000806180936900EA9A809150039091510367
:103FA000A0915203B0915303809341039093420335
:103FB000A0934303B093440361E084E30E94A30809
:103FC00060E084E30E94750861E08AE20E94A30831
:103FD00060E08AE20E94750861E08BE10E94A3081C
:103FE00060E08BE10E94750861E08DE10E94A3080A
:103FF00060E08DE10E94750861E080E30E94A30803
:1040000060E080E30E9475080E949F0C0E94BA0C39
:1040100083E20E944C088C019093570380935603CF
:1040200085E20E944C089093550380935403B80195
:10403000110F880B990B0E94D61160915403709157
:104040005503072E000C880B990B0E94D6118AE3AA
:1040500092E00E942A1061E085E30E9475080CE15D
:1040600010E070E060E081E090E00E948E0F01506F
:104070001109B9F76AE570E081E090E00E948D0DCA
:104080006AE570E082E090E00E94DF0F70E060E09F
:1040900082E090E00E948D0D90E080E00E9402128C
:1040A00003E010E0C0904C03D0904D03E0904E032D
:1040B000F0904F03C701B6010E94A92481E090E06F
:1040C0000E94DF0F20E030E044EB52E4C701B6016C
:1040D0000E9453230E94A9246B0182E090E00E9479
:1040E0008D0DC6010E94021201501109D9F670E02F
:1040F00060E090E080E00E94500D60E27EE480E0AD
:1041000090E00E94DB0966EA7FEF82E090E00E9487
:104110008D0D86EA9FEF0E9402126CE47FEF82E031
:1041200090E00E948D0D8CE49FEF0E94021262EFDE
:104130007EEF82E090E00E948D0D82EF9EEF0E9464
:10414000021262EF7EEF81E090E00E948E0FF9CFC5
:104150008AE39CE0D1CC0C5F1F4FF601EB5AFC4F79
:10416000E49180917104E13009F07ACD42E368E393
:104170000E94410C003C110508F43CCDC7010E948F
:10418000DF2603E023E042E06BE6809171040E94A9
:104190006C1542E168E3809171040E94410C44E097
:1041A00069E1809171040E94410C01E023E045E047
:1041B0006AE1809171040E946C1503E023E042E003
:1041C0006AE1809171040E946C1522E044E06BE189
:1041D000809171040E946C1543E060E78091710446
:1041E0000E94410C40E061E7809171040E94410C03
:1041F00020E040E060E0809171040E941015072DDE
:1042000026E046E060E0809171040E946C15082D64
:1042100026E046E061E0809171040E946C15092D52
:1042200026E046E062E0809171040E946C15F12C5A
:10423000E12CF701EA5DFC4FE491A1E8B0E0AC0F9E
:10424000BD1FAE0DB11DEC9381E08E0D9FEFE91AFD
:10425000F90A93E09E1568F7CD57DF4F6881C35880
:10426000D04070E09B012E5F3F4F8217130609F389
:1042700004F300E0CE57DF4F2881C258D040CF571B
:10428000DF4F4881C158D04081E890E08C0F9D1FDE
:1042900003960E94B71580E0F701EA5DFC4FE491B8
:1042A000A1E8B0E0AC0FBD1FA80FB11DEC938F5F6C
:1042B0009FEFE91AF90A282F30E0843068F3CD57D0
:1042C000DF4F6881C358D04070E0AB014E5F5F4F55
:1042D000421753070CF700E0CE57DF4F2881C25832
:1042E000D040CF57DF4F4881C158D04081E890E09F
:1042F0008C0F9D1F03960E94B7150E9443150E94C4
:10430000E414682FCE0101960E94FD1442E06FE193
:10431000809171040E94410C4CE961E2809171042A
:104320000E94410C40E560E2809171040E94410CC2
:1043300040E062E2809171040E94410C0E944315AA
:1043400021E046E06AE6809171040E94101521E0A8
:1043500047E06AE6809171040E94101521E043E075
:104360006AE6809171040E94101580E0F701EA5D11
:10437000FC4FE491A1E8B0E0AC0FBD1FA80FB11D48
:10438000EC938F5F9FEFE91AF90A282F30E0843011
:1043900068F3CD57DF4F6881C358D04070E0AB0160
:1043A0004E5F5F4F421753070CF700E0CE57DF4FC9
:1043B0002881C258D040CF57DF4F4881C158D040E4
:1043C00081E890E08C0F9D1F03960E94B71580E056
:1043D000F701EA5DFC4FE491A1E8B0E0AC0FBD1F2E
:1043E000A80FB11DEC938F5F9FEFE91AF90A282FF0
:1043F00030E0843068F3CD57DF4F6881C358D04038
:1044000070E0AB014E5F5F4F421753070CF700E0BF
:10441000CE57DF4F2881C258D040CF57DF4F488159
:10442000C158D04081E890E08C0F9D1F03960E94F8
:10443000B71580E0F701EA5DFC4FE491A1E8B0E038
:10444000AC0FBD1FA80FB11DEC938F5F9FEFE91A52
:10445000F90A282F30E0843068F3CD57DF4F6881A8
:10446000C358D04070E0AB014E5F5F4F4217530717
:104470000CF700E0CE57DF4F2881C258D040CF570D
:10448000DF4F4881C158D04081E890E08C0F9D1FDC
:1044900003960E94B7150E94E41483309105D8F367
:1044A000682FCE0101960E94FD1480E0F701EA5DBD
:1044B000FC4FE491A1E8B0E0AC0FBD1FA80FB11D07
:1044C000EC938F5F9FEFE91AF90A282F30E08430D0
:1044D00068F3CD57DF4F3880C358D040A32CB12CA0
:1044E000A5014E5F5F4F4217530704F7CE57DF4FCA
:1044F0005880C258D040CF57DF4F2880C158D04095
:10450000422D4F716DE6809171040E94410C852D02
:104510000E94510CD12CC12C812C9924939421E818
:10452000622E712C6C0E7D1E83E0680E711CCA1405
:10453000DB0488F5C6014096432C4C18A816B90632
:1045400010F080E1482EC40185199109481619061A
:1045500019F014F0452C419493012C0D3D1D08EEEB
:1045600013E0442D6FE6809171040E944D13C40C3A
:10457000D11C540CCA14DB04D0F6511001C0239492
:10458000422D4F716DE6809171040E94410C852D82
:104590000E94510CCCCF0E94E41483309105D8F3D3
:1045A000682FCE0101960E94FD14F701EA5DFC4FD1
:1045B00080E09491A1E8B0E0AC0FBD1FA80FB11D41
:1045C0009C938F5F282F30E0843060F0CD57DF4F11
:1045D0006881C358D04070E0AB014E5F5F4F421717
:1045E000530714F03196E5CF00E0CE57DF4F288116
:1045F000C258D040CF57DF4F4881C158D04081E8E2
:1046000090E08C0F9D1F03960E94B71520E047E0B5
:104610006AE6809171040E9410158AE290E09093FE
:104620008304809382040E94431508EE13E022E77E
:1046300034E041E06AE3809171040E944D1310E080
:1046400013CB85EA9BE00E947907612F70E090E030
:1046500080E04AE00E94371083EA9BE00E94FE104F
:104660006ECBA1E21A2EAA1BBB1BFD010DC0AA1F17
:10467000BB1FEE1FFF1FA217B307E407F50720F0CB
:10468000A21BB30BE40BF50B661F771F881F991F46
:104690001A9469F760957095809590959B01AC018F
:1046A000BD01CF0108955058BB27AA270E946B2354
:1046B0000C947E250E94702538F00E94772520F00A
:1046C00039F49F3F19F426F40C9446250EF4E09536
:1046D000E7FB0C944025E92F0E948F2558F3BA1769
:1046E000620773078407950720F079F4A6F50C9408
:1046F000B1250EF4E0950B2EBA2FA02D0B01B901B8
:1047000090010C01CA01A0011124FF27591B99F047
:10471000593F50F4503E68F11A16F040A22F232F53
:10472000342F4427585FF3CF469537952795A795A3
:10473000F0405395C9F77EF41F16BA0B620B730B4A
:10474000840BBAF09150A1F0FF0FBB1F661F771FBB
:10475000881FC2F70EC0BA0F621F731F841F48F470
:10476000879577956795B795F7959E3F08F0B0CFF9
:104770009395880F08F09927EE0F979587950895E0
:104780000E94702560F080E891E009F49EEF0E949D
:10479000772528F040E851E071F45EEF0CC00C94EE
:1047A00046250C94B125E92FE0780E948F2540F32F
:1047B000092E052AB1F3261737074807590738F09D
:1047C0000E2E07F8E02569F0E025E0640AC0EF63EB
:1047D00007F8009407FADB01B9019D01DC01CA0169
:1047E000AD01EF930E944E240E947E250E94032477
:1047F0005F91552339F02BED3FE049E450FD49EC42
:104800000C9454230895DF93DD27B92FBF7740E838
:104810005FE31616170648075B0718F4D92F0E94A6
:10482000BD259F938F937F936F930E943226E4EE72
:10483000F0E00E9449250E947E252F913F914F91E3
:104840005F910E94D825DD2351F09058A2EA2AED0D
:104850003FE049EC5FE3D0785D270E946B23DF9156
:104860000C947E250E941C2508F481E008950E9486
:104870004B240C947E250E94772558F00E947025C9
:1048800040F029F45F3F29F00C94402551110C941D
:10489000B2250C9446250E948F2568F39923B1F325
:1048A000552391F3951B550BBB27AA276217730756
:1048B000840738F09F5F5F4F220F331F441FAA1FEA
:1048C000A9F335D00E2E3AF0E0E832D091505040A6
:1048D000E695001CCAF72BD0FE2F29D0660F771F54
:1048E000881FBB1F261737074807AB07B0E809F03A
:1048F000BB0B802DBF01FF2793585F4F3AF09E3FBF
:10490000510578F00C9440250C94B2255F3FE4F3F8
:10491000983ED4F3869577956795B795F7959F5F01
:10492000C9F7880F911D9695879597F90895E1E04D
:10493000660F771F881FBB1F621773078407BA07AC
:1049400020F0621B730B840BBA0BEE1F88F7E09507
:1049500008950E94B0246894B1110C94B225089572
:104960000E94972588F09F5798F0B92F9927B75143
:10497000B0F0E1F0660F771F881F991F1AF0BA9503
:10498000C9F714C0B13091F00E94B125B1E008958B
:104990000C94B125672F782F8827B85F39F0B93F7D
:1049A000CCF3869577956795B395D9F73EF49095B6
:1049B0008095709561957F4F8F4F9F4F0895E89434
:1049C00009C097FB3EF490958095709561957F4F57
:1049D0008F4F9F4F9923A9F0F92F96E9BB27939505
:1049E000F695879577956795B795F111F8CFFAF415
:1049F000BB0F11F460FF1BC06F5F7F4F8F4F9F4F46
:104A000016C0882311F096E911C0772321F09EE8A3
:104A1000872F762F05C0662371F096E8862F70E009
:104A200060E02AF09A95660F771F881FDAF7880FE3
:104A30009695879597F90895990F0008550FAA0B39
:104A4000E0E8FEEF16161706E807F907C0F01216A1
:104A50001306E407F50798F0621B730B840B950BA4
:104A600039F40A2661F0232B242B252B21F40895F9
:104A70000A2609F4A140A6958FEF811D811D089596
:104A800097F99F6780E870E060E008959FEF80EC01
:104A90000895DF93CF931F930F93FF92EF92DF92CE
:104AA0007B018C01689406C0DA2EEF010E94D825A4
:104AB000FE01E894A5912591359145915591A6F374
:104AC000EF010E946B23FE019701A801DA9469F7B8
:104AD000DF90EF90FF900F911F91CF91DF9108959C
:104AE00000240A94161617061806090608950024CD
:104AF0000A9412161306140605060895092E039447
:104B0000000C11F4882352F0BB0F40F4BF2B11F4BA
:104B100060FF04C06F5F7F4F8F4F9F4F089557FD19
:104B20009058440F551F59F05F3F71F04795880F1B
:104B300097FB991F61F09F3F79F0879508951216B2
:104B400013061406551FF2CF4695F1DF08C016165E
:104B500017061806991FF1CF86957105610508940F
:104B60000895E894BB2766277727CB0197F9089526
:104B70000E941C2508F48FEF08959B01AC0160E0B2
:104B800070E080E89FE30C9437240E94D8250C94B1
:104B90007E250E94702538F00E94772520F095230D
:104BA00011F00C9440250C94462511240C94B22548
:104BB0000E948F2570F3959FC1F3950F50E0551F0C
:104BC000629FF001729FBB27F00DB11D639FAA2762
:104BD000F00DB11DAA1F649F6627B00DA11D661FB1
:104BE000829F2227B00DA11D621F739FB00DA11DD2
:104BF000621F839FA00D611D221F749F3327A00D8C
:104C0000611D231F849F600D211D822F762F6A2F27
:104C100011249F5750409AF0F1F088234AF0EE0F8C
:104C2000FF1FBB1F661F771F881F91505040A9F7B9
:104C30009E3F510580F00C9440250C94B2255F3FB7
:104C4000E4F3983ED4F3869577956795B795F795F5
:104C5000E7959F5FC1F7FE2B880F911D969587956D
:104C600097F908959B01AC010C94C5250E941C2561
:104C7000880B990B0895EE0FFF1F881F8BBF0790BD
:104C8000F691E02D19940F931F93CF93DF93823009
:104C9000910510F482E090E0E0918604F0918704A1
:104CA00030E020E0B0E0A0E0309799F42115310524
:104CB00009F44AC0281B390B24303105D8F58A8104
:104CC0009B816115710589F1FB0193838283FE014C
:104CD00011C0408151810281138148175907E0F0CA
:104CE0004817590799F4109761F012960C93129790
:104CF00013961C933296CF01DF91CF911F910F91A4
:104D000008950093860410938704F4CF211531058C
:104D100051F04217530738F0A901DB019A01BD0198
:104D2000DF01F801C1CFEF01F9CF909387048093A1
:104D30008604CDCFFE01E20FF31F819391932250A1
:104D4000310939832883D7CF209184043091850499
:104D5000232B41F4209112023091130230938504E9
:104D60002093840420911002309111022115310505
:104D700041F42DB73EB74091140250911502241B07
:104D8000350BE0918404F0918504E217F307A0F459
:104D90002E1B3F0B2817390778F0AC014E5F5F4F91
:104DA0002417350748F04E0F5F1F5093850440933A
:104DB0008404819391939FCFF0E0E0E09CCFCF9368
:104DC000DF930097E9F0FC01329713821282A091E1
:104DD0008604B0918704ED0130E020E01097A1F443
:104DE00020813181820F931F2091840430918504AA
:104DF0002817390709F061C0F0938504E093840413
:104E0000DF91CF910895EA01CE17DF07E8F54A81D7
:104E10005B819E0141155105B1F7E901FB83EA83EE
:104E200049915991C40FD51FEC17FD0761F480819A
:104E300091810296840F951FE9019983888382816D
:104E400093819B838A83F0E0E0E012968D919C91A0
:104E500013970097B9F52D913C911197CD010296CA
:104E6000820F931F209184043091850428173907FD
:104E700039F6309751F51092870410928604B0935A
:104E80008504A0938404BCCFD383C2834081518125
:104E9000840F951FC817D90761F44E5F5F4F888153
:104EA0009981480F591F518340838A819B81938345
:104EB00082832115310509F0B0CFF0938704E09388
:104EC00086049ECFFD01DC01C0CF13821282D7CFB2
:104ED0004F925F926F927F928F929F92AF92BF920A
:104EE000CF92DF92EF92FF920F931F93CF93DF93B6
:104EF0008C01009799F4CB01DF91CF911F910F9115
:104F0000FF90EF90DF90CF90BF90AF909F908F90E9
:104F10007F906F905F904F900C944326FC01E60FBA
:104F2000F71F9C0122503109E217F30708F4AEC0C5
:104F3000D901CD91DC911197C617D70720F1C53063
:104F4000D10578F0CE0104978617970750F0C61B5D
:104F5000D70B2297C193D1936D937C93CF010E947D
:104F6000DF26C801DF91CF911F910F91FF90EF9045
:104F7000DF90CF90BF90AF909F908F907F906F9079
:104F80005F904F9008955B01AC1ABD0A4C018C0EE6
:104F90009D1EA0918604B0918704512C412CF12CC8
:104FA000E12C109731F58091840490918504881547
:104FB000990509F05CC04616570608F058C0809164
:104FC000100290911102009741F48DB79EB7409165
:104FD000140250911502841B950BE817F90708F08D
:104FE00055C0F0938504E0938404F90171836083D4
:104FF000B8CF8D919C91119712966C901297139641
:105000007C901397A815B90559F56C0142E0C40EC0
:10501000D11CCA14DB0420F1AC014A195B09DA0186
:105020001296159780F06282738251834083D90172
:105030006D937C93E114F10471F0D7011396FC9306
:10504000EE9312978ECF22968C0F9D1FF9019183BC
:105050008083F301EFCFF0938704E093860481CF40
:105060004816590608F42C017D01D3019ACFCB01D3
:105070000E9443267C01009749F0AE01B8010E94CE
:105080005628C8010E94DF2687016BCF10E000E0A0
:1050900068CFFB01DC0104C08D910190801921F4DF
:1050A00041505040C8F7881B990B0895FB01DC0163
:1050B00002C001900D9241505040D8F70895F894E5
:0250C000FFCF20
:1050C2000D0A0D0A0D0A0D0A0D0A0D0A0D0A0D0A26
:1050D200000088048000000000002C079606C3062A
:1050E2009407F406D206E60600000000BB0B8E0B06
:1050F2000E0C640B870B740B650B0D0A006E616E50
:1051020000696E66006F766600212121212121212E
:10511200212121212121212121007961770065723C
:02512200720019
:00000001FF
